:020000040800F2
:10000000E81401209D010008A5010008A7010008CF
:10001000A9010008AB010008AD01000800000000C4
:10002000000000000000000000000000AF01000818
:10003000B101000800000000B3010008493E0008BB
:10004000B7010008B7010008B7010008B7010008B0
:10005000B7010008B7010008B7010008B7010008A0
:10006000B7010008B7010008B7010008B701000890
:10007000250A0008B7010008B7010008B701000809
:10008000310A00083D0A0008B7010008B70100085E
:10009000B7010008B7010008B7010008770A000897
:1000A000B7010008B7010008B7010008B701000850
:1000B000B7010008B70100083D3F0008B70100087C
:1000C000B7010008B7010008B7010008B701000830
:1000D000B7010008B7010008D5450008E145000850
:1000E000B70100083D3B0008B7010008B701000850
:1000F000B7010008B7010008B7010008B701000800
:10010000B7010008B7010008493F0008B70100081F
:10011000B7010008B7010008B7010008B7010008DF
:10012000B7010008B7010008B7010008B7010008CF
:10013000B7010008B7010008B7010008B7010008BF
:10014000B7010008B7010008B7010008B7010008AF
:10015000B7010008B7010008B7010008B70100089F
:10016000B7010008B7010008B7010008B70100088F
:10017000B7010008B7010008B7010008000000003F
:10018000B7010008B7010008DFF80CD000F0FAFB57
:1001900000480047B98C0008E81401200648804751
:1001A00006480047FEE7FEE7FEE7FEE7FEE7FEE75C
:1001B000FEE7FEE7FEE7FEE7053F000889010008CD
:1001C0002DE9F05F0546002092469B46884606468C
:1001D000814640241BE0284641464746224600F01F
:1001E00026F953465A46C01A914110D31146184673
:1001F000224600F00DF92D1A67EB01084F46224602
:100200000120002100F004F917EB00094E41201EE7
:10021000A4F10104DFDC484631462A46434600F09B
:1002200000B830BCBDE8C09F0649074A0868504383
:1002300043F23902104408604008704701490860E1
:1002400070470000DC0100206D4EC64140EA01030A
:100250009B0703D009E008C9121F08C0042AFAD27C
:1002600003E011F8013B00F8013B521EF9D2704740
:10027000D2B201E000F8012B491EFBD270470022E8
:10028000F6E710B513460A4604461946FFF7F0FF95
:10029000204610BD421C10F8011B0029FBD1801A1A
:1002A000704730B504460020034600E05B1C9342D3
:1002B00003D2E05CCD5C401BF8D030BD30B480EAA6
:1002C000010202F0004530F0004221F0004013D05E
:1002D00090B1C30DD40DC2F31601C0F31600E41A99
:1002E00041F4000140F400027D34914201D3641CCA
:1002F00000E04900002C02DA30BC002070474FF4C7
:1003000000000023914201D3891A034340084FEAB9
:100310004101F7D151B1914202D14FF0004105E0C6
:1003200002D24FF0010101E06FF0010103EBC45074
:10033000284430BC00F08BB896230022114600F010
:100340008FB80EB540F2334102910021CDE9001182
:100350000A460B4600F0C1F803B000BDC1F30A52D3
:1003600010B5C1F3130140F2FF3341F480119A42FA
:1003700001DA002010BD40F233439A42A2F2334228
:1003800003DC524200F053F810BD904010BD00F065
:10039000004230F000400AD0C10D01F56071C0F399
:1003A000160042EA0151C20840071143704700207D
:1003B0000146704730B5041E71F1000404DB4FF0B4
:1003C0000044404264EB0101141E73F1000405DB9C
:1003D0001C464FF00043524263EB04038B4208BFBC
:1003E000824230BD30B50B46014600202022012458
:1003F00009E021FA02F59D4205D303FA02F5491BF3
:1004000004FA02F52844151EA2F10102F1DC30BD08
:10041000202A04DB203A00FA02F1002070479140C4
:10042000C2F1200320FA03F3194390407047202AB9
:1004300004DB203A21FA02F00021704721FA02F38E
:10044000D040C2F12002914008431946704700296C
:10045000A8BF7047401C490008BF20F0010070474A
:1004600010B4B0FA80FC00FA0CF050EA010404BFAA
:1004700010BC704749B1CCF1200421FA04F411FA00
:100480000CF118BF012121430843A3EB0C01CB1D44
:100490004FEA00614FEA102042BF002010BC7047B5
:1004A00000EBC35010440029A4BF10BC7047401C8F
:1004B000490008BF20F0010010BC704710B5141EA1
:1004C00073F1000408DA401C41F1000192185B410D
:1004D0001A4301D120F0010010BD2DE9F04D9246E4
:1004E0009B4611B1B1FA81F202E0B0FA80F22032FB
:1004F0009046FFF78DFF04460F4640EA0A0041EAA6
:100500000B0153465A46084313D0114653EA0100E3
:1005100019D0C8F140025046FFF789FF05460E4644
:10052000504659464246FFF773FF084305D0012065
:1005300004E020463946BDE8F08D0020054346EA38
:10054000E0762C4337430A986305E40AA0EB0800E1
:100550000022FD0A44EA47540A3002D50020014631
:10056000E9E7010510196941DDE90845001969410C
:10057000BDE8F04DA2E72DE9FE4F804681EA030079
:10058000C00F0C46009021F0004123F00045B8EB6D
:100590000200A94105D24046214690461C460B4622
:1005A000024623F00040104347D0270DC7F30A004E
:1005B000C3F30A510290401A019040286BDAC3F34A
:1005C000130040F4801B0098924620B10023D2EB28
:1005D000030A63EB0B0B01985946C0F140025046E9
:1005E000FFF716FF06460D4650465946019A00F0A1
:1005F000DBF910EB08006141002487EA115284EA1C
:10060000E7731A4340D0009A62B3019A012A4FEA75
:10061000075215DC001B61EB02014FF0004202EAB9
:100620000752CDE90042001C41F5801132462B46AD
:10063000FFF753FF03B000F045B840462146F9E705
:10064000001B61EB0201001C41F5801300185B41A7
:100650002018A2F5001747EB030140EAD570B61940
:100660006D4111E06D084FEA360645EAC0754FEA64
:100670000752001B61EB0201001C41F58011490883
:100680004FEA30000019514132462B4603B000F0CA
:100690001CB8FFF713BF0098012240000023D0EBE5
:1006A000020263EBE073009821464FEAE074B8EB76
:1006B000000061EB0401E9E783F000435BE781F0B0
:1006C000004158E730BCBDE8C08F30BCBDE8C04F2A
:1006D000FFF7DFBF2DE9FE4F81EA030404F0004479
:1006E00021F0004100944FF0000B23F0004350EA4A
:1006F00001045ED052EA03045BD0C3F30A54C1F391
:100700000A552C44A4F2F3340194A0FB0254C1F323
:10071000130141F48011C3F3130343F4801301FB6D
:10072000024400FB034E840A970A44EA815447EAD4
:100730008357A4FB076802958D0A05FB07854FEADE
:10074000932C04FB0C542705029D4FEA065847EAF8
:100750001637B5EB08056EEB070C870E920E47EACD
:10076000811742EA8312A7FB0201B6EB0B0164EB8F
:1007700000042B0D43EA0C335E1844EB1C50DA46A0
:100780005146E7FB0201C5F313044FEA0B3343EA7A
:1007900014534FEA0432019C43EA0603A4F10C040B
:1007A0000294009CCDE900B4FFF797FE03B000F07F
:1007B00003B800200146F9E730BCBDE8C08F2DE941
:1007C000F04D81EA030404F0004B21F0004514468B
:1007D0004FF0000A23F0004150EA050220D054EA0D
:1007E00001021DD0C5F30A570246C5F31303C1F336
:1007F0001300C1F30A5640F4801543F48013A7EBAD
:100800000608101BD64608F2FD3873EB050002D32C
:1008100008F1010801E092185B41B8F1000F03DA1A
:1008200000200146BDE8F08D00204FF480110646FF
:1008300084460EE0171B73EB050705D3121B63EB11
:10084000050306434CEA010C49084FEA30009218B0
:100850005B4150EA0107EDD152EA030012D082EA6F
:10086000040083EA0501084305D0101BAB4106D202
:100870000122002306E000224FF0004302E06FF067
:10088000010253101AEB06004CEB085110EB0A0062
:1008900041EB0B01BDE8F04DFFF710BE2DE9F04133
:1008A000054621F000400C46284309D0C4F30A5005
:1008B00040F23341884205DD28462146BDE8F081FB
:1008C0002846FBE740F2FE31884210DC0CDB4FEAA1
:1008D000043040EA155050EA053105D0104804F0C4
:1008E000004101430020E9E700200146E6E7A0F2CD
:1008F00033404642C6F1400228462146FFF788FDB4
:1009000007468846284621463246FFF790FD434673
:100910003A46FFF7D3FD3246BDE8F041FFF778BD18
:100920000000F03FC1F30A52C1F3130140F2FF335C
:1009300041F480119A4202DA00200146704740F2E9
:1009400033439A42A2F2334202DC5242FFF76FBDB8
:10095000FFF75EBD30B5041E71F1000404DB4FF0FB
:100960000044404264EB0101141E73F1000405DBF6
:100970001C464FF00043524263EB0403994208BF08
:10098000904230BD064C074D06E0E06840F00103A0
:1009900094E8070098471034AC42F6D3FFF7F8FB11
:1009A00074C3000894C30008202A06DBCB17203A42
:1009B00041FA02F043EAE07306E041FA02F3D04064
:1009C000C2F12002914008431946704770B58C1857
:1009D00010F8015B15F0070301D110F8013B2A1153
:1009E00006D110F8012B03E010F8016B01F8016B40
:1009F0005B1EF9D12B0705D40023521E0DD401F83C
:100A0000013BFAE710F8013BCB1A921C03E013F804
:100A1000015B01F8015B521EF9D5A142D8D3002039
:100A200070BD0000014800F01FB90000B0040020B4
:100A3000014800F019B9000068040020014800F0E6
:100A400013B900002004002030B590F8444004F0B1
:100A50001C050124AC40056C6C600468636083680D
:100A6000102B036803D099600068C26030BD9A60A3
:100A70000068C16030BD4FF4007000F087BB00001B
:100A8000124A107F1249012801D003280BD10B68AC
:100A900043F400630B600B6823F400630B600B6886
:100AA00043F400730B60022801D003280BD10868BF
:100AB00040F480500860086820F48050086008689E
:100AC00040F480600860002010777047BC0100206F
:100AD000002002400849C20703D04A6942F00402DC
:100AE0004A61800703D5486940F40040486148697D
:100AF00040F480304861704700200240CA070B492B
:100B00004A6902D022F4006201E042F400624A61C4
:100B10004A6960F3CA024A61486940F002004861CC
:100B2000486940F48030486170470000002002406E
:100B3000044910B54C6944F001044C610260436003
:100B400010BD000000200240074B10B55C69402238
:100B500044F480245C6172B608C908C0521E12F0C9
:100B6000FF02F9D162B610BD0020024070B5044604
:100B700000F00CFC0646184D08E0601C06D000F0A2
:100B800005FC801BA04201D3032070BD2869C0036F
:100B9000F3D429694CF2FA300140A86900F0004012
:100BA000084311D00D494A6802434A60810F04D0BE
:100BB000A96900F040421143A961810002D020F0F0
:100BC00040402861012070BD2869C00701D0012084
:100BD0002861002070BD000000200240BC01002000
:100BE000C8B101680A6822F00E020A6001680A684A
:100BF00022F001020A6090F84410012301F01C0267
:100C000003FA02F1026C516080F82530002180F86F
:100C10002410084670470120704710B590F8251041
:100C20000024022903D00421C16301241AE00168D1
:100C30000A6822F00E020A6001680A6822F00102C6
:100C40000A6090F84410012301F01C0203FA02F13B
:100C5000026C516080F82530002180F82410816BEF
:100C600001B18847204610BDF0B4016C0B680168E3
:100C70000A6890F84440042504F01C0405FA04F6C0
:100C80001E4211D056070FD50A68920603D40A688F
:100C900022F004020A6090F8441001F01C018D401B
:100CA000016C4D60016B1DE0022606FA04F71F423D
:100CB0004FF0000C4FF0010518D0970716D50A68C1
:100CC000920605D40A6822F00A020A6080F82550CC
:100CD00090F8441001F01C018E40016C4E6080F8C9
:100CE00024C0C16A00291AD0F0BC08470826A640D3
:100CF0001E4214D0120712D50A6822F00E020A60B2
:100D000090F84410026C01F01C0105FA01F15160E9
:100D1000C56380F8255080F824C0416BE2E7F0BC41
:100D20007047000070B568B1334C01681423334A32
:100D3000A14209D2324C0C44B4FBF3F39B00C0E94E
:100D400010230BE0012070BD2B4C64420C44B4FB1B
:100D5000F3F39B004364284B083B0364022380F8B1
:100D600025300C6847F6F0739C43D0E902352B43DD
:100D7000D0E9045635432B4385692B43C5692B4382
:100D8000056A2B4323430B608168B1F5804F29D05E
:100D9000016C0F23914212D152F8A81F90F84440E1
:100DA00004F01C04A3409943116090F8443041685A
:100DB00003F01C03994013681943116012E00E49B7
:100DC000A0310A6890F8444004F01C04A3409A4300
:100DD0000A6090F84430426803F01C039A400B68A4
:100DE0001A430A600021C163012280F8252080F89F
:100DF0002410084670BD00000804024000000240B4
:100E0000F8FFFDBF70B5044690F8240000250128C6
:100E10000CD0012084F8240094F825600020012ED5
:100E200006D084F824000225284670BD022070BD3B
:100E3000022684F82560E0632068066826F0010633
:100E400006602046FFF700FE206B0028206801683E
:100E500002D041F00E0106E021F00401016020689B
:100E6000016841F00A0101602068016841F0010158
:100E70000160D9E770B5044600F088FA0546601CA9
:100E800000D0641C00F082FA401BA042FAD370BD6F
:100E90002DE9F05F044635488946017801290CD0D8
:100EA0000125804605704CF2503B5846FFF75EFE28
:100EB00006004FF0000A03D053E0022000F05AB8B9
:100EC00051464046C8F804A0294F3A6892050ED50D
:100ED000396821F4007139603968490505D53968E8
:100EE00021F480613960032109E0057708E03A6860
:100EF000520504D5396821F48061396002210177F7
:100F00002068012807D04FF0FF31C9F8001040F2E7
:100F1000FA7BA5681EE06068FFF7DCFD5846FFF726
:100F200025FE0646786948F204018843786116E098
:100F300028466168FFF7E2FD4CF25030FFF716FEDD
:100F40000600786920EA0B00786102D0C9F80050E9
:100F500005E06D1CD4E902010844A842E8D8FFF777
:100F60008FFD88F800A03046A8E70000BC010020F3
:100F70000020024030BCBDE8C09F0000034841692A
:100F800041F0004141610020704700000020024014
:100F90002DE9FF5F254F05460024387891469B4692
:100FA000012809D0012038704CF25030FFF7DEFDE7
:100FB0000600A24604D035E0022004B000F03AB8A2
:100FC0005046C7F804A0DFF86880D8F8001049053B
:100FD00006D5D8F8001021F48061C8F8001002206E
:100FE000387725B1012D09D0022D07D00DE04A46F2
:100FF0005B460198FFF79CFD012406E049460198F5
:10100000FFF7A2FD022D00D16C044CF25030FFF727
:10101000ADFD064624B1D8F81410A143C8F8141049
:10102000FFF72EFD87F800A03046C6E7BC01002080
:101030000020024030BCBDE8C09F000006490020EF
:101040004A69002A07DA054A8A60054A8A604969BE
:10105000002900DA01207047002002402301674583
:10106000AB89EFCD2DE9F04F00224FF0010A4FF090
:101070000F08DFF8E4B069E00AFA02F414EA0103A9
:1010800063D0066857000325BD402E430660D6088E
:1010900000EB8606D6F820C057074FEAD76908FA52
:1010A00009F72CEA070CC6F820C08668AE438660B4
:1010B0004668A6434660C668AE43C660C56AA54397
:1010C000C56222F003055D44AC689607370F08FA45
:1010D00007F606EA040CB0F1904F04D01F4CA04272
:1010E00003D101241BE0002419E01D4CA04201D1D2
:1010F000022414E01B4CA04201D103240FE01A4C3F
:10110000A04201D104240AE0184CA04201D10524D8
:1011100005E0174CA04201D1062400E00724BC40A2
:10112000644512D1AC68B443AC60124C25689D4351
:101130002560241D25689D432560241D25689D4349
:101140002560241D25689D432560521C31FA02F359
:1011500092D100F011B800000000014000040048E6
:1011600000080048000C0048001000480014004827
:10117000001800480004014030BCBDE8C08FB0F545
:10118000007F01D109F064B970470000044910B52F
:101190000A68024202D00860FFF7F1FF10BD0000AC
:1011A000140401402DE9F84FDFF8A091002209F165
:1011B000040A0AF1040B4FF00F080BF1040EBEE015
:1011C00001249440234075D04D68022D01D0122D8A
:1011D00011D1D50800EB85073E6A5507ED0E08FAD8
:1011E00005FC26EA0C06D1F810C00CFA05FC4CEA06
:1011F000060CC7F820C007685500032691F804C004
:10120000AE400CF0030CB7430CFA05FC4CEA070C9B
:10121000C0F800C04F68012F05D0022F03D0112F56
:1012200001D0122F15D18768D1F80CC0B7430CFA42
:1012300005FC4CEA070CC0F808C0476891F804C0E8
:10124000A743CCF3001C0CFA02FC4CEA070CC0F8D4
:1012500004C0D1F804C06FEA0C07BF0706D1C76A03
:10126000A743CCF3C00494403C43C462C468B44375
:101270008E68AE402643C6604C68E4005ED5344CB0
:10128000256E45F001052566246E22F0030504F065
:10129000010400942F4C2E19B7689407250F08FA03
:1012A00005F4A743B0F1904F05D02B4CA04204D1D8
:1012B00001241CE042E0002419E0284CA04201D1A6
:1012C000022414E0264CA04201D103240FE0254C57
:1012D000A04201D104240AE0234CA04201D10524FC
:1012E00005E0224CA04201D1062400E00724AC40D6
:1012F0003C43B460D9F800404D464E689C43F60329
:1013000000D51C432C60DAF8004055464E689C43DB
:10131000B60300D51C432C60DBF800405D464E68E8
:101320009C43F60200D51C432C60DEF80040754655
:101330004E689C43B60200D51C432C60521C0B68BF
:1013400033FA02F47FF43CAF00F012B8000401401D
:10135000001002400000014000040048000800485E
:10136000000C004800100048001400480018004815
:1013700018BCBDE8E08F0069084000D0012070472C
:101380000AB18161704781627047000001480068BE
:1013900070470000B801002010B5040003D094F895
:1013A000710010B107E0012010BD002084F870002A
:1013B000204601F039FE242084F87100206801687D
:1013C00021F001010160204602F074FF0128EBD0FA
:1013D000606A10B1204602F052FE2068416821F494
:1013E000904141602068816821F02201816020687D
:1013F000816841F0080181602068016841F00101C5
:1014000001602046BDE8104002F09DBE0248016820
:10141000491C016070470000B8010020074810B562
:10142000016841F480710160032000F093F800200E
:1014300000F006F800F018F8002010BD002002406F
:1014400010B5044607484FF47A710068B0FBF1F01C
:1014500001F0F5FA00222146501E00F05BF8002052
:1014600010BD0000B40100201E4808B5016E41F017
:1014700001010166016E01F001010091816D41F0F1
:1014800080518165806D00F080500090032000F055
:1014900061F8002211466FF00B0000F03BF80022CB
:1014A00011466FF00A0000F035F8002211466FF087
:1014B000090000F02FF800221146501F00F02AF812
:1014C00000221146101F00F025F800221146901E40
:1014D00000F020F80022BDE808401146501E00F040
:1014E00019B800000010024000F01F0201219140D5
:1014F0004009800000F1E020C0F88011704700F042
:101500001F02012191404009800000F1E020C0F855
:1015100000117047F0B40E4B1B68C3F30223C3F1F4
:101520000704042C00D904241D1D072D01D200231B
:1015300000E0DB1E012606FA04F56D1E0D409D40FD
:101540009E40761E164045EA0601F0BC02F07CB9CA
:101550000CED00E0064A00F0070110684FF6FF03AB
:10156000184040EA0120034908431060704700001A
:101570000CED00E00000FA05BFF34F8F054801684D
:10158000054A01F4E06111430160BFF34F8F00BFD2
:10159000FDE700000CED00E00400FA051549B0F588
:1015A000007F0868C0F3412009D0022805D00868F0
:1015B00020F4C06040F4806008600020704701287B
:1015C000FBD0086820F4C06040F4007008600A484E
:1015D0000A4A0068B0FBF2F03222504300E0401E9D
:1015E00010B14A695205FAD448694005E5D503208F
:1015F0007047000000700040B401002040420F001E
:101600000248006800F4C0607047000000700040AD
:101610000248016841F48071016070470070004029
:101620002DE9F84F044600250088E44E2F460105B9
:1016300004F1200B1DD5606E78B1B0F5800F11D08C
:10164000B0F5000F04D0B0F5400F22D001250FE017
:10165000F06840F48030F0601BE00021201D02F0B3
:1016600013F903E00021584602F0A4F9050010D058
:101670002F462088C00426D5A06EC0B1B0F1807F6F
:101680001AD0B0F1007F0DD0B0F1407F19D0012504
:1016900018E0D6F88800616E20F440000843C6F8D0
:1016A0008800E6E7F06840F48030F06009E000214F
:1016B000201D02F0E9F803E00021584602F07AF913
:1016C0000546F5B12F462068800366D5B06D4FF012
:1016D0000009C00009D4B06D40F08050B065B06D15
:1016E0004FF0010900F080500090DFF8D4A2DAF842
:1016F000001041F48071CAF80010FFF747FE8046E1
:1017000010E0D6F88800A16E20F040700843C6F8BB
:101710008800D8E7FFF73AFEA0EB0800022801D9BD
:10172000032532E0DAF80000C005F3D56DBBD6F82A
:10173000900010F4407015D0D4F88410814211D07C
:10174000D6F89000D6F8901020F4407041F4803123
:10175000C6F89010D6F8901021F48031C6F8901099
:10176000C6F89000C0074ED0FFF710FE804641F249
:10177000883A05E0FFF70AFEA0EB08015145CFD8F3
:10178000D6F890008007F5D5EDB32F46B9F1000FDC
:1017900003D0B06D20F08050B0652078C00707D02E
:1017A000D6F88800A16B20F003000843C6F8880033
:1017B0002078800707D5D6F88800E16B20F00C0070
:1017C0000843C6F888002078400707D5D6F8880077
:1017D000216C20F030000843C6F88800207800070C
:1017E00007D5D6F88800616C20F0C0000843C6F821
:1017F00088002078C00609D5D6F88800A16C20F4AE
:101800004070084300E05AE0C6F88800207880065F
:1018100007D5D6F88800E16C20F440600843C6F88C
:1018200088002088800507D5D6F88800E16D20F46F
:1018300040200843C6F888002088400507D5D6F820
:101840008800216E20F440100843C6F888002078F4
:10185000400607D5D6F88800216D20F44050084393
:10186000C6F888002078000607D5D6F88800616D94
:1018700020F440400843C6F888002088C00507D5FA
:10188000D6F88800A16D20F440300843C6F88800DF
:1018900020884FF0006580044FF0806821D5D6F88D
:1018A0008800E16E20F040600843C6F88800E06ED2
:1018B000A8420ED1F06840F48010F06011E0D6F834
:1018C0009000D4F8841020F440700843C6F89000CB
:1018D0005CE7404505D10121201D01F0D5FF00B195
:1018E00007462068000317D5D6F88800216F20F03E
:1018F00040600843C6F88800206FA84204D1F06811
:1019000040F48010F06007E0404505D10121201D22
:1019100001F0BAFF00B107462068400317D5D6F89A
:101920008800616F20F040600843C6F88800606F4F
:10193000A84204D1F06840F48010F06007E0404510
:1019400005D10121201D01F09FFF00B1074620882D
:1019500040041AD5D6F88800A16F20F04050084303
:10196000C6F88800A06FB0F1805F03D0B0F1005FCF
:1019700005D00AE00221201D01F086FF03E00221CC
:10198000584602F017F800B107462088000407D532
:10199000D6F88800E16F20F080400843C6F8880040
:1019A0002068C00307D556F8880FD4F8801020F0BF
:1019B000004008433060384600F004B80010024090
:1019C0000070004018BCBDE8E08F00002DE9F04732
:1019D0000D4604005ED0DFF80481D8F8000000F066
:1019E0000700A8420CD2D8F8001021F007012943C3
:1019F000C8F80010D8F8000000F00700A84249D14C
:101A00002078374EC0072BD06068032811D00228F9
:101A100012D0316898B1490500293BDAB16821F04C
:101A200003010143B160FFF7B1FC074641F2883979
:101A30000FE031688901EFE731688903ECE7890736
:101A4000EAE7FFF7A3FCC11B494502D90320BDE823
:101A5000F087B068616800F00C00B0EB810FF0D146
:101A60002078800705D5B068A16820F0F000084311
:101A7000B060D8F80010404601F00701A9420BD928
:101A8000016821F0070129430160006800F00700A8
:101A9000A84201D00120DAE72078400705D5B068D8
:101AA000E16820F4E0600843B0602078000706D5C4
:101AB000B068216920F4605040EAC100B06000F0D5
:101AC0003BF8B168074AC1F30311515CC8400649AD
:101AD00008600020FFF7B4FC0020B8E700200240B7
:101AE0000010024018C30008B4010020014800683B
:101AF00070470000B4010020044805490068896867
:101B0000044AC1F30221515CC8407047B40100206F
:101B10000010024058C3000804480549006889685D
:101B2000044AC1F3C221515CC8407047B40100208F
:101B30000010024058C3000830B52D4A0021084665
:101B400093682C4C13F00C0F4FEA640514D0936883
:101B5000C3F38103032B04D1D36803F00303012BE8
:101B60000AD09368C3F38103012B19D09368C3F3A0
:101B70008103022B16D016E01168090704D4D2F8AD
:101B80009410C1F3032102E01168C1F303111A4B51
:101B900053F82110936813F00C0F04D1084602E0AB
:101BA000204600E028469368C3F38103032B1DD130
:101BB000D06800F00303D068C0F30210401C022B71
:101BC00004D0032B05D0B1FBF0F004E0B4FBF0F03F
:101BD00001E0B5FBF0F0D168C1F306214843D168BC
:101BE000C1F34161491C4900B0FBF1F030BD000078
:101BF000001002400024F40028C300082DE9F84337
:101C000004007CD02078FF4DC0065DD5A86810F098
:101C10000C0F0AD0A0690028286872D040F001009B
:101C20002860FFF7B3FB064654E02868800702D51A
:101C3000A0690028E5D0216A2868000703D5286834
:101C400000F0F00004E0D5F89400F02202EA101051
:101C5000814216D9084601F033FF00284FD1286889
:101C600040F0080028602868216A20F0F00008434E
:101C700028606868E16920F47F4040EA01206860DC
:101C800015E0286840F0080028602868216A20F0E4
:101C9000F000084328606868E16920F47F4040EA6A
:101CA00001206860206A01F00BFF0028D6D1FFF701
:101CB00043FFA968D44AC1F30311515CC840D3491A
:101CC00008600020FFF7BCFB2AE0FFF75FFB801BEA
:101CD00002287DD828688007F7D5286840F00800DA
:101CE00028602868216A20F0F000084328606868AE
:101CF000E16920F47F4040EA0120686010E0AEE036
:101D0000FFE720F001002860FFF740FB064604E0F3
:101D1000FFF73CFB801B0228DBD828688007F7D43C
:101D20002078C00746D0A868C0F3810002281DD0E3
:101D3000A868C0F38100032803D1E868C043800786
:101D400014D06068B0F5803F17D0B0F5A02F286898
:101D500017D020F480302860286820F48020286084
:101D60006068D8B1FFF712FB064613E028688003CD
:101D700020D56068002872D01CE0286840F48030CC
:101D8000EDE740F480202860F7E7FFF7FFFA801BBB
:101D900064289ED828688003F7D50BE0FFF7F6FA91
:101DA000064604E0FFF7F2FA801B642891D8286801
:101DB0008003F7D42078800741D5A868C0F381005C
:101DC000012816D0A868C0F38100032806D100E0DE
:101DD000A5E0E86800F0030002280AD0E0680028C7
:101DE00028681DD040F480702860FFF7CFFA0646BF
:101DF0000BE0286840050BD5E0680028BBD007E061
:101E0000FFF7C4FA801B022886D828684005F7D55A
:101E10006868217C20F0F85040EA016068600EE0BC
:101E200020F480702860FFF7B1FA064604E0FFF75F
:101E3000ADFA801B022872D828684005F7D42078B4
:101E4000000728D560690028D5F8940012D040F02A
:101E50000100C5F89400FFF799FA064605E0F7E09F
:101E6000FFF794FA801B022859D8D5F89400800710
:101E7000F6D510E020F00100C5F89400FFF786FACF
:101E8000064604E0FFF782FA801B022847D8D5F8FF
:101E900094008007F6D42078400762D5A86D00270B
:101EA000C00008D4A86D40F08050A865A86D012737
:101EB00000F08050009056480168C90511D40168AF
:101EC000804641F480710160FFF760FA064604E045
:101ED000FFF75CFA801B022821D8D8F80000C00563
:101EE000F6D5A068012815D00528D5F8900017D0A0
:101EF00020F00100C5F89000D5F8900020F0040013
:101F0000C5F89000A06841F28838C0B1FFF73EFAEA
:101F100006460FE0D5F8900040F00100F0E770E0D1
:101F200040F00400C5F89000F4E7FFF72FFA811B9A
:101F3000414566D8D5F890008007F6D50CE0FFF74C
:101F400025FA064604E0FFF721FA811B414577D8C0
:101F5000D5F890008007F6D41FB1A86D20F080500E
:101F6000A865A06AF0B3A968C1F38101032970D004
:101F70000228286820F08070286011D028680001AD
:101F800006D42868800003D4E86820F00300E860E5
:101F9000E86820490840E860FFF7F8F9044652E095
:101FA000FFF7F4F9064604E0FFF7F0F9801B02287A
:101FB00046D828688001F7D4206BE16A0001103808
:101FC0000843616BA26B0902120941EA42410843CE
:101FD000A18F114A490802EB4151084394F840107F
:101FE000490800E032E0120102EB41610843E86079
:101FF000286840F080702860E86840F08070E860F1
:102000000CE01DE00010024018C30008B4010020DD
:1020100000700040FFFFEEFE0000E0FFFFF7B6F9A2
:10202000044604E0FFF7B2F9001B022808D828682C
:102030008001F7D50AE0FFF7A9F9001B022802D9B1
:102040000320BDE8F88328688001F4D40020F8E775
:10205000FFE70120F5E77047024801880A31018057
:10206000704700009001002010B51B4904464FF452
:10207000802008601EE08868C0040BD5C868C005D1
:1020800008D5C86800F0800060F4C070C8602046C1
:10209000FFF7E2FF2168886880040BD5C8688005D7
:1020A00008D5C86800F0800060F42070C860204641
:1020B000FFF7D1FF21688868C00402D5C868C00551
:1020C000D9D48868800402D5C8688005D3D401209B
:1020D00084F8210010BD00001404014070B5040014
:1020E00003D094F8210010B107E0012070BD00205A
:1020F00084F82000204600F04DF8022084F82100EA
:102100002168CA204862216853204862204601F0B5
:102110002FFDFF25042618BB206881681C4A11404A
:102120008160206881686268A369114322691A434B
:10213000114381602168E068086120680169228993
:1021400041EA024101612068C16821F08001C1605B
:1021500020688068800608D4204600F0EFF920B19E
:102160002068456284F82160BFE72068C16C21F0D7
:102170000301C164E169606901432068C26C1143D5
:10218000C16420684562012084F82100002070BDF0
:10219000BFFF8FFF10B50068094988420FD1094879
:1021A00050F8901F41F4004101600022114629209F
:1021B000FFF7B0F9BDE810402920FFF7A0B910BD26
:1021C00000280040001002402DE9F05F044690F81E
:1021D00020000B46012849D04FF0010A84F820A0C6
:1021E000022084F821002068002680684FEA4060C1
:1021F000DAB3002857DA187801F0A6FC93F820002B
:1022000001F0A2FC98781978DA7840EA0140597810
:10221000090241EA0241084393F8201040EA0165AF
:10222000D8695F6805435869216805439869074381
:10223000CA204862216853204862586A4FF0FF095B
:10224000B0F5807F20684FF47A7B81682DD021F42F
:10225000007181602068C16801F0800161F4207123
:10226000C160FFF793F8804654E002E0022000F0DE
:1022700079B8002800DBDE70187801F06EFC0204EB
:10228000587801F06AFC42EA0022987801F065FC77
:102290000243D87842EA004293F8200001F05DFC46
:1022A00042EA0065BCE7DE70A8E721F48071816036
:1022B0002068C16801F0800161F4C071C160FFF75E
:1022C00065F8804605E0FFF761F8A0EB0800584587
:1022D00017D82068C068C007F5D02068C56120689D
:1022E00047642068816841F480718160206881685A
:1022F00041F480511FE0FFF749F8A0EB0800584572
:1023000008D92168C1F82490032084F8210084F8BA
:102310002060ACE72068C0688007ECD520680562C3
:10232000206887642068816841F4007181602068BA
:10233000816841F4005181600948016841F48021BD
:10234000016007480830016841F48021016021687C
:10235000C1F8249084F821A084F82060002086E74A
:102360000004014030BCBDE8C09F00002DE9F047EB
:10237000044690F820000B46012826D04FF00109B2
:1023800084F82090022084F82100587802B301F0EC
:10239000DBFB987801F0D8FB9878D97840EA0145C2
:1023A00058781978000240EA413005432168CA2074
:1023B0004862216853204862204601F0D9FB00267C
:1023C000FF274FF0040858BB19E00220BDE8F08752
:1023D000C10603D500F0EF000A305870D87801F03C
:1023E000BCFB0204587801F0B8FB42EA002298785E
:1023F00001F0B3FB0243187842EA4035D6E71048B3
:102400000540206845602068C16821F08001C160F6
:102410002068806880060BD4204600F08FF838B121
:102420002068476284F8218084F820600120CDE78D
:102430002068476284F8219084F820600020C5E776
:102440003FFFFF002DE9F047044690F820000D46BD
:10245000012812D04FF0010A84F820A0022084F84D
:1024600021002068002680684FEA406042B10028C1
:102470001ADA287801F068FB17E00220BDE8F0873F
:10248000002800DBEE70287801F067FB0204687812
:1024900001F063FB42EA0022A87801F05EFB0243F0
:1024A000E87842EA00470AE0EE70A878297840EA26
:1024B00001476878E978000240EA01400743216853
:1024C000CA204862216853204862204601F050FB30
:1024D0004FF0FF084FF00409E0B9174807402068A3
:1024E00007602068816821F480218160D5E90310AC
:1024F000014320688268114381602068C16821F02F
:102500008001C1602068806880060CD4204600F0FD
:1025100015F840B12168C1F8248084F8219084F82E
:1025200020600120AAE72168C1F8248084F821A056
:1025300084F820600020A1E77F7F7F0070B505460A
:102540000068C16821F0A001C160FEF71FFF0446CA
:102550004FF47A7606E0FEF719FF001BB04201D96E
:10256000032070BD2868C0688006F4D5002070BDC7
:102570002DE9FC410446534845F6C051002500684A
:10258000B0FBF1F064214843019000902168486855
:10259000000610D54C4820650098421E009204D2D7
:1025A000206E40F04000206603E094F85D000728AC
:1025B000F2D1019800904868400610D54348E06485
:1025C0000098421E009204D2206E40F04000206627
:1025D00003E094F85D000728F2D101980090486864
:1025E00020F020004860206841684FF0000789070C
:1025F00002D44068C00750D0606D4FF4C0684026D8
:1026000018B38763606DFEF7EBFA00B126662068A9
:10261000416821F002014160FEF7B8FE02466421E4
:10262000204601F03FFB00B126662068016821F0DA
:1026300040010160FEF7AAFE00906423002241469B
:10264000204601F053FB00B12666A06D28B38763D6
:10265000A06DFEF7C5FA00B126662068016821F07A
:1026600040010160FEF792FE009064230022802169
:10267000204601F08AFB00B12666FEF787FE009037
:10268000642300224146204601F030FB00B126665B
:102690002068416821F001014160A4F84670E78795
:1026A000206E40280CD027662068C16881680091A0
:1026B00080680090012084F85D002846BDE8FC8118
:1026C0000125F1E7B4010020293C0008A93B0008DE
:1026D00090F85D0070472DE9F041040005D0002519
:1026E000A56294F85D0018B107E00120BDE8F08113
:1026F00084F85C50204600F059F8022684F85D60AA
:102700002068016821F040010160E0684FF4E06258
:10271000904201D9002101E04FF48051B0F5706F73
:1027200002D0904200D0A562276B012327B99042C6
:1027300001D9266300E02363D4E901021043D4E900
:10274000042632431043228B02F400721043E269E4
:102750001043226A1043A26A104322681060626B21
:10276000606AA66910430427E26807EA1646324306
:102770001043084321684860256684F85D300020D6
:10278000B4E7000000680749884209D10648016E95
:1027900021F480510166E0214FF09040FEF762BCC9
:1027A00070470000003001400010024000B5006892
:1027B0000E4987B0884217D10D48016E41F480510F
:1027C0000166006E694600F480500590E02000909C
:1027D0000220019000200290032003900520049025
:1027E0004FF09040FEF7DEFC07B000BD0030014026
:1027F000001002402DE9F05F044690F85C000127CC
:10280000DDF828809A4616460D464FF0000901284B
:102810000ED0012084F85C00FEF7B8FD834694F8E2
:102820005D00616801280CD0B1F5827F07D102E01C
:10283000022000F0F4B8A16809B9042801D00220F0
:10284000D2E035B32EB3BAF1000F22D094F85D0078
:10285000042802D0052084F85D000020206626644C
:10286000A4F846A0A4F844A0A563A4F83EA0A4F848
:102870003CA0E0642065E0684FF4E061884203D842
:10288000B4F84600012806D92068426822F4805234
:1028900005E00120A8E02068426842F480524260CE
:1028A00020680268520603D4026842F040020260C7
:1028B000E068884260683AD910B1E08F01282ED1D3
:1028C000216835F8020BC860E08F401EE08726E0E3
:1028D00067B1E08F50B120688168890706D535F867
:1028E000021BC160E08F401EE0870027B4F846005D
:1028F00060B120688168C90708D0C06826F8020B5B
:10290000B4F84600401EA4F846000127B8F1FF3F86
:1029100005D0FEF73BFDA0EB0B01414563D2E08FF4
:102920000028D5D1B4F846000028D1D165E010B117
:10293000E08F01285AD1E08F012806D9216835F8A7
:10294000020BC860E08F801E05E0216815F8010BBE
:102950000873E08F401EE08748E0AFB1E08F98B188
:102960002068816889070FD5E18F012905D935F8DD
:10297000021BC160E08F801E04E015F8011B01738B
:10298000E08F401EE0870027B4F8460010B32068AF
:102990008168C9071ED0B4F84610012911D9C06852
:1029A00026F8020BB4F84600801EA4F84600B4F8DE
:1029B000460001280DD82068416841F480514160EB
:1029C00007E0007B06F8010BB4F84600401EA4F8AF
:1029D00046000127B8F1FF3F08D0FEF7D7FCA0EB77
:1029E0000B01414502D30320814610E0E08F00280F
:1029F000B3D1B4F846000028AFD15A46414620462C
:102A000001F050F918B120204FF001092066012093
:102A100084F85D00002084F85C00484609E730BC7B
:102A2000BDE8C09F4FF0E0210428086903D020F0E2
:102A300004000861704740F00400FAE7704710B5E1
:102A4000401EB0F1807F01D3012010BD4FF0E02483
:102A500060610F21601700F0F7FE0020A0610720E1
:102A60002061002010BD10B5FFF7E8FF10BD7047D2
:102A70007047704770B590F83C20012A24D001259A
:102A800080F83C50022280F83D2003685A689E6816
:102A90000E4CA34202D00E4CA34203D122F4700488
:102AA0004A68224322F070040A688968224326F0AB
:102AB000800421435A600268916080F83D500021F3
:102AC00080F83C10084670BD022070BD002C01400B
:102AD0000034014010B5040003D094F83D0010B15B
:102AE00007E0012010BD002084F83C00204600F0E3
:102AF0000DF8022084F83D00211D206801F02AFA1B
:102B0000012084F83D00002010BD000008B50068D9
:102B1000194A1A4990420ED1886D40F00400886528
:102B2000886D002200F00400009011461E20FEF780
:102B3000F1FC1E2010E0124A904211D1886D40F045
:102B400008008865886D002200F00800009011469A
:102B50003220FEF7DFFC3220BDE80840FEF7CFBC94
:102B6000084A904207D1086E40F400300866086EAB
:102B700000F40030009008BD000800400010024042
:102B8000000C0040004401400168CA6842F00102A4
:102B9000CA600068826807490A40062A08D082682D
:102BA0000A40B2F5803F03D0016841F001010160A5
:102BB00000207047070001000168CA6822F0010286
:102BC000CA600068016A41F21112114207D1016A1C
:102BD0009210114203D1016821F00101016000202F
:102BE0007047000070B5044690F83C00012817D0EB
:102BF000012584F83C50022084F83D00206882685A
:102C0000314E324022F47F4282600868502838D02A
:102C10000DDC202854D005DC90B3102842D14FE0C1
:102C2000022070BD30284BD040283BD140E06028C6
:102C30002FD070280CD0B0F5805F03D0B0F5005FC6
:102C400030D112E0206881681F4A703211400AE0DA
:102C5000CB68D1E90121206801F0DCF920688168A6
:102C6000314041F0770181601CE0CB68D1E901215E
:102C7000206801F0CFF92068816841F48041F2E7D3
:102C80001EE0CA684968206801F0D6F95021206822
:102C900006E0CA684968206801F0DFF96021206811
:102CA00001F0C2F984F83D50002084F83C0070BD6A
:102CB000CA684968206801F0BFF940212068EFE741
:102CC000226801461046EBE788FFFEFF704770B5AB
:102CD0000446006801694FF00005C943890715D40F
:102CE000C168C943890711D4E91E01610120207719
:102CF000206880698007204602D0FFF7E7FF04E0E4
:102D000000F0A7F8204600F0A5F8257720680169B3
:102D1000C943490717D4C168C943490713D46FF0A1
:102D200004010161022020772068806910F4407F4F
:102D3000204602D0FFF7CAFF04E000F08AF82046E0
:102D400000F088F8257720680169C943090716D47F
:102D5000C168C943090712D46FF00801016104205A
:102D600020772068C0698007204602D0FFF7AEFFB9
:102D700004E000F06EF8204600F06CF8257720683B
:102D80000169C943C90617D4C168C943C90613D428
:102D90006FF010010161082020772068C06910F4ED
:102DA000407F204602D0FFF791FF04E000F051F889
:102DB000204600F04FF8257720680169C943C9070C
:102DC00008D1C168C943C90704D1891E01612046E1
:102DD00000F042F820680169C943090609D4C168B6
:102DE000C943090605D46FF0800101612046FFF751
:102DF0003FFE20680169C943C90509D4C168C943B8
:102E0000090605D46FF4807101612046FFF72FFE9B
:102E100020680169C943490609D4C168C943490604
:102E200005D46FF040010161204600F01DF82068D4
:102E30000169C94389060BD4C168C943890607D40F
:102E40006FF0200101612046BDE87040FFF711BE20
:102E500070BD7047704700000249884201D102F0FE
:102E600081B97047B002002070477047704710F872
:102E7000711F4078084370472DE9F041026804460D
:102E8000D0691168936810F00F0F4FF000055BD008
:102E900003F0010601F49077374369D0C70707D0E4
:102EA000CF0505D501271762626F42F00102626704
:102EB000820708D5DA0706D0276802223A62626FD5
:102EC00042F004026267420708D5DA0706D0236899
:102ED00004221A62626F42F00202626702070AD598
:102EE00001F02002324306D0236808221A62626F82
:102EF00042F008026267626F002A32D0800605D570
:102F0000880603D5216E09B120468847606F000707
:102F100003D420688068400625D5204601F0B1F929
:102F200020688168490619D5816821F040018160D7
:102F3000E06E98B120498163E06EFDF76EFE0028D7
:102F40000FD0E06E816B06E0860611D58E060FD598
:102F5000216E1EE02046BDE8F04108472046FFF7FD
:102F600085FFBDE8F0812046FFF780FF6567F8E741
:102F7000C60209D55B0207D54FF4801010622046C7
:102F8000BDE8F041FFF771BF030605D50B0603D579
:102F9000616E0029DED1E4E74006E2D54806E0D5BF
:102FA0001168204621F040011160202184F8711041
:102FB000656600F075F9D4E7A341000810B5040078
:102FC00003D094F8710010B107E0012010BD00207B
:102FD00084F87000204600F027F8242084F871005F
:102FE0002068016821F001010160204601F062F9CA
:102FF0000128EBD0606A10B1204601F040F820684B
:10300000416821F4904141602068816821F02A01E3
:1030100081602068016841F0010101602046BDE83F
:10302000104001F090B800002DE9F0470446006818
:10303000494D4A4B03210722022786B04FF0100961
:103040004FF000084FF0800AA84249D1986D40F433
:1030500000309865986DCDF8088000F40030059038
:10306000CDE903120C20CDE90007454669464FF033
:103070009040FEF797F83B4E3948D046C6E9035AD0
:103080007561B56186E881024FF48059C6E9075938
:103090003046FDF747FE18B18C2133A001F0A6FAA7
:1030A000A666B4622F4E2E48483614383060C6E902
:1030B0000175C6E903587561B561C6E9075930461F
:1030C000FDF730FE18B19D2127A001F08FFAE666CA
:1030D000002202212620B462FEF71CFA262036E0E8
:1030E000254DA84235D1986D40F480209865986DA3
:1030F00002AD00F4802005901220CDE9009001205F
:1031000085E807004E4669461C48FEF74BF8154D0A
:10311000134890356438C5E90007C5E90268C5E978
:1031200004A8C5F81880C5F81C802846C5F820807A
:10313000FDF7F8FD18B1C8210BA001F057FAA566FC
:10314000002211462720AC62FEF7E4F92720FEF7A3
:10315000D6F906B0BDE8F0870044004000100240F8
:1031600080000240200400202E2E2F5372632F7502
:10317000736172742E63000000480040000800482C
:1031800070B5044690F8720020283AD1B1B3AAB3C2
:1031900094F87000012834D0012084F87000616533
:1031A000A4F8582000256567222084F87200E16E9B
:1031B00015481346C862E16E14480863E16E14486E
:1031C0004863E06E8563606DE66E216802463046B6
:1031D0002431FDF717FE84F870502068016841F42F
:1031E000807101602068816841F001018160206880
:1031F000816841F040018160002070BDFFE701203F
:10320000FBE70220F9E70000014200083F42000806
:10321000B74100087047704770B5044690F87100D8
:10322000202834D181B37AB394F8700001282ED0CD
:10323000012084F87000E164A4F85020A4F8522022
:1032400000256567212084F87100A16E114813469E
:10325000C862A16E10480863A16E10484863A06E52
:1032600085632668E16C06F12802A06EFDF7CAFDB1
:1032700021684020086284F870502068816841F01D
:1032800080018160002070BDFFE70120FBE7022084
:10329000F9E700004942000879420008B7410008F8
:1032A00070477047114808B5816C41F00101816495
:1032B000806C002200F00100009011460C20FEF707
:1032C00029F90C20FEF71BF9002211461020FEF709
:1032D00021F91020FEF713F9002211461120FEF704
:1032E00019F9BDE808401120FEF709B900100240A5
:1032F0002DE9F04F494887B0C16C41F00401C16429
:10330000C16C01F004010591C16C41F00101C1647F
:10331000C16C01F001010591C16C41F00201C16471
:10332000C06C4FF0904900F002000590012210217E
:103330004846FEF725F8DFF8E8A000224FF4687150
:103340005046FEF71DF8DFF8DCB04FF4504801227C
:1033500041465846FEF714F801224FF48861504662
:10336000FEF70EF800224FF480614846FEF708F899
:10337000002220215846FEF703F82B4F4FF400504F
:10338000CDE900070024694602945046FDF70AFF84
:103390004FF4826001250326CDE90005CDE9024600
:1033A00069464846FDF7FEFE4FF48C600090CDE97B
:1033B0000154694650460394FDF7F4FECDF80080B1
:1033C000CDE90154694658460394FDF7EBFE4FF4EE
:1033D0006070CDE90005CDE9024669465046FDF72B
:1033E000E1FE6802CDE90007694602944846FDF710
:1033F000D9FE2020CDE90005CDE9024669465846B0
:10340000FDF7D0FE00220F211720FEF783F81720CA
:10341000FEF775F807B000F009B800000010024090
:1034200000080048000400480000111030BCBDE84E
:10343000C08FF0B585B020200126CDE9000600241C
:1034400003254FF0904769463846CDE90245FDF720
:10345000A9FE8020CDE9000669463846CDE902453F
:10346000FDF7A0FE4020CDE9000469463846CDE9CD
:103470000245FDF797FE1720FEF736F87002CDE9FA
:10348000000469463846CDE90245FDF78BFE05B0DC
:10349000F0BD00002DE9F04186B020200225CDE9E5
:1034A000000502AA00240326052782E8D0004FF079
:1034B000904869464046FDF775FE8020CDE900053D
:1034C00002AA694682E8D0004046FDF76BFE402024
:1034D000CDE9000502AA694682E8D0004046FDF722
:1034E00061FE280200901048CDE90104694640467B
:1034F000FDF758FE1720FEF702F80C48016E41F464
:1035000080510166006E02AA00F480500590E02010
:10351000CDE9000582E8D00069464046FDF742FE4D
:1035200006B0BDE8F081000000001110001002405C
:1035300030B52E4891B02C490024C0E900144FF456
:10354000A371C0E90241046144618461C461FEF772
:10355000C5FD18B1492126A001F048F88DF8284092
:103560008DF829408DF82A400D9401220AA91F48A0
:103570000E94FEF767FF18B158211DA001F036F830
:1035800001258DF83C508DF83D508DF83E508DF85A
:103590003F402A460FA91548FEF7E8FE18B16521FD
:1035A00013A001F023F88DF800408DF801408DF84C
:1035B00002504FF08030CDE904404FF48070019408
:1035C00003940990069407948DF8205001226946CF
:1035D0000648FEF7F9FD002803D07A2104A001F087
:1035E00005F811B030BD000000280040E8010020BF
:1035F0002E2E2F5372632F7274632E63000000000F
:103600000148FFF7BFB800000C020020134810B5B6
:10361000114901604FF48271416000214FF4E06272
:10362000C0E902120122C0E904125202826118228A
:10363000C0E9072107224162C0E90A120163416320
:10364000FFF749F8002805D0BDE81040502104A03C
:1036500000F0CCBF10BD0000003001400C02002083
:103660002E2E2F5372632F7370692E63000000009B
:103670000D4810B50B4901604FF6FF114160002164
:103680003122C0E90212016141618161FFF722FA32
:10369000002805D0BDE810407E2104A000F0A6BFA0
:1036A00010BD000000440140F00200202E2E2F53D8
:1036B00072632F74696D2E630000000010B5184806
:1036C00088B0164901604FF6FF110024C0E90114CB
:1036D00040F22B11C0E903148461FFF7FBF918B124
:1036E000412110A000F082FF4FF48050039003A905
:1036F0000B48FFF777FA18B147210AA000F076FFD0
:103700000094694606480294FFF7B4F9002803D0F4
:103710004E2104A000F06AFF08B010BD0008004070
:10372000700200202E2E2F5372632F74696D2E634A
:103730000000000010B5174888B0154901603F210E
:103740000024C0E901140C21C0E903148461FFF7CF
:10375000C1F918B1602110A000F048FF4FF480506B
:10376000039003A90B48FFF73DFA18B166210AA0A0
:1037700000F03CFF0094694606480294FFF77AF98E
:10378000002803D06D2104A000F030FF08B010BD68
:10379000000C0040B00200202E2E2F5372632F74B5
:1037A000696D2E63000000000E4810B50C490160E1
:1037B0004FF4E1314160002181600C22C160C0E919
:1037C00004128161C16101624162FFF7F7FB0028C9
:1037D00005D0BDE810404E2103A000F007BF10BD8A
:1037E00000440040300300202E2E2F5372632F75AB
:1037F000736172742E6300000E4810B50C490160AD
:103800004FF4E1314160002181600822C160C0E9CC
:1038100004128161C16101624162FDF7BDFD0028B2
:1038200005D0BDE81040632103A000F0DFBE10BD4D
:1038300000480040A80300202E2E2F5372632F75DE
:10384000736172742E6300000907090E002806DAFE
:1038500000F00F0000F1E02080F8141D704700F127
:10386000E02080F80014704710B507F0EBFD002849
:1038700009D007F0E9FD002805D005F047FBBDE8B9
:10388000104007F0EDBD10BD2DE9F041444E054656
:103890008846F0680024810728680ED0F16801F09E
:1038A0000301814207D130B1F0686968C0F30210AA
:1038B000401C88421FD001246EE0012809D0022854
:1038C0000AD00328F7D13168890309D43168490344
:1038D00004E03168890701E0316849050029EADA26
:1038E000F1686A686FF00F0321F0730103EB0212B5
:1038F00011430143F160306820F080603060FDF7D3
:1039000045FD074604E0FDF741FDC01B022839D8FC
:1039100030680001F7D47CBBB8F1000F18D0B8F1C3
:10392000010F1ED0287D4FF07E41400801EB406022
:10393000A96840EA012031691A4A11400843306100
:10394000306840F080603060FDF720FD07461BE0E6
:10395000A868E9680002090940EA41403169124A51
:10396000EBE7288A1149400801EB4050A96840EA7A
:10397000012031690E4AE0E70EE0FDF707FDC01BAC
:10398000022801D9032407E030680001F5D51CB9ED
:103990003069A969084330612046BDE8F081000024
:1039A00000100240FF80FFF9FF80FDFF0000E0FFF4
:1039B000FF809FFF2DE9F0413E4E05468846F068A6
:1039C0000024810728680ED0F16801F003018142CC
:1039D00007D130B1F0686968C0F30210401C88421A
:1039E0001FD0012462E0012809D002280AD0032850
:1039F000F7D13168890309D43168490304E031689B
:103A0000890701E0316849050029EADAF1686A6846
:103A10006FF00F0321F0730103EB02121143014316
:103A2000F160306820F080503060FDF7AFFC074651
:103A300004E0FDF7ABFCC01B02282DD830688000E5
:103A4000F7D454BBB8F1000F15D0287C4FF07E415D
:103A5000400801EB4060A96840EA01217069164AFC
:103A6000104001437161306840F080503060FDF7D4
:103A70008DFC074612E0A868E9680002090940EADF
:103A8000414071690D4A114008437061EBE7FDF751
:103A90007DFCC01B022801D9032407E030688000A8
:103AA000F5D51CB970696969084370612046BDE8A5
:103AB000F081000000100240FF80FFF9FF80FDFF51
:103AC000F8B51C4E05460024B06DC00002D5FDF7C8
:103AD00097FD0DE0B06D40F08050B065B06D00F026
:103AE00080500090FDF78CFDB16D21F08051B165E3
:103AF000B0F5007F04D0802D07D94FF003040AE011
:103B0000802D08D9A02D01D804E001D1022402E0C3
:103B1000702D00D101240848016821F007012143DC
:103B20000160006800F00700A04201D00120F8BD4C
:103B30000020F8BD00100240002002400148FEF7BE
:103B400093BA0000E8010020010901EB810100F0B7
:103B50000F0000EB4100C0B27047002102E00A38BC
:103B6000C0B2491C0A28FAD2090740EA116070471E
:103B700070B505460068C168490613D44FF0FF319F
:103B8000C160FDF703FC04464FF47A7606E0FDF7CA
:103B9000FDFB001BB04201D9032070BD2868C0683E
:103BA0004006F4D5002070BD38B5044600680168B1
:103BB00021F0400101601B4845F6C0510068B0FB90
:103BC000F1F06421484300902068416821F0E00151
:103BD00041600098411E009104D2206E40F04000E8
:103BE000206603E0206840684006F2D4FDF7CEFB73
:103BF0000090642300228021204600F0C6F8402572
:103C000000B12566FDF7C2FB0090642300224FF44B
:103C1000C061204600F06AF800B12566072084F8EC
:103C20005D0038BDB401002038B504461C4845F697
:103C3000C0510068B0FBF1F0642148430090206857
:103C4000416821F0E00141600098411E009104D2DA
:103C5000206E40F04000206603E0206840680006C7
:103C6000F2D4FDF793FB02466421204600F01AF8D7
:103C7000402500B125662068016821F040010160FF
:103C8000FDF784FB0090642300224FF4C0612046BE
:103C900000F02CF800B12566072084F85D0038BDDF
:103CA000B4010020F8B515460E460B4600920446B6
:103CB00000224FF4C05100F019F888B933460022B1
:103CC00080212046009500F060F848B93346002274
:103CD0004FF4C0612046009500F008F8002804D099
:103CE000206E40F0200020660320F8BD2DE9F84347
:103CF0001D4616460F4604464FF4C069DDF8208085
:103D00003CE04F4505D126B9007B8DF800009DF8B9
:103D10000000681C32D02DB1FDF738FBA0EB080085
:103D2000A8422BD32068416821F0E001416060681F
:103D3000B0F5827F0BD1A068B0F5004F02D0B0F58E
:103D4000806F04D12068016821F040010160A06A01
:103D5000B0F5005F09D12068016821F400510160CD
:103D60002068016841F400510160012084F85D0081
:103D7000002084F85C000320BDE8F8832068816897
:103D80003940B142BDD10020F6E72DE9F0411D4692
:103D900017460E460446DDF8188034E0681C32D021
:103DA0002DB1FDF7F3FAA0EB0800A8422BD3206851
:103DB000416821F0E00141606068B0F5827F0BD17D
:103DC000A068B0F5004F02D0B0F5806F04D1206834
:103DD000016821F040010160A06AB0F5005F09D1DF
:103DE0002068016821F4005101602068016841F4F5
:103DF00000510160012084F85D00002084F85C001F
:103E00000320BDE8F0812068806836EA000004D015
:103E10000020B842C2D10020F3E70120F9E70000FA
:103E20000249002208780A70704700008C010020C7
:103E300010B5FFF7F5FF0349BDE81040A1F60500F6
:103E400007F0F0BA86CD002010B5FDF7DFFABDE827
:103E50001040FEF708BE000030B5B9B0FDF7D8FB42
:103E6000264850F8901F21F018010160062001211A
:103E700022900D0224911020CDE9255002202C9093
:103E8000CDE92D0108212F910721CDE93010329085
:103E900022A8FDF7B3FE00B1FEE70F203390002407
:103EA0000320CDE934040146369433A83794FDF756
:103EB0008DFD00B1FEE712480F94009021951094FB
:103EC0006846FDF7ADFB00B1FEE74FF40070FDF76B
:103ED00065FB00B1FEE7FDF709FE4FF47A71B0FB18
:103EE000F1F0FEF7ACFD0420FEF79CFD0022114628
:103EF000501EFDF70FFB39B030BD0000001002402E
:103F0000060002000A48016841F001010160002139
:103F100081600268074B1A4002608214C260026826
:103F200022F48022026081610349C0030860704767
:103F300000100240FFFFF6EA08ED00E00148FEF73E
:103F4000C6BE0000700200200148FEF7C0BE00009F
:103F5000B00200202DE9F0470268264C264D274E7E
:103F6000274F284B4FF0804AA04209D0504507D038
:103F7000A84205D0B04203D0B84201D0984204D143
:103F800022F0700C4A6842EA0C02DFF87CC0DFF8CD
:103F90007C80DFF87C90A0420FD050450DD0A84225
:103FA0000BD0B04209D0B84207D0984205D0604546
:103FB00003D0404501D0484503D122F44075CA687A
:103FC0002A434D6922F080022A4302608A68C26255
:103FD0000A688262A04207D0984205D0604503D0AB
:103FE000404501D0484501D1096901630121416182
:103FF000BDE8F087002C01400004004000080040AC
:10400000000C0040003401400040014000440140E9
:104010000048014010B5846842EA032224F47F443A
:104020000A432243826010BD826822F070020A4374
:1040300042F007018160704710B5046A036A23F0FB
:1040400001030362836923F0F00343EA021324F0BF
:104050000A020A438361026210BD10B5036A23F0AD
:10406000100303628469036A24F4704444EA023250
:1040700023F0A00343EA01118261016210BD90F8B0
:104080002410C90706D001684A68836A22F4003206
:104090001A434A6090F82410890706D501684A68D7
:1040A000C36A22F480321A434A6090F82410490708
:1040B00006D501684A68036B22F480221A434A60DD
:1040C00090F82410090706D501684A68436B22F46A
:1040D00000421A434A6090F82410C90606D50168C8
:1040E0008A68836B22F480521A438A6090F8241005
:1040F000890606D501688A68C36B22F400521A4308
:104100008A6090F82410490611D501684A68036C4A
:1041100022F480121A434A60016CB1F5801F06D167
:1041200001684A68436C22F4C0021A434A6090F85E
:104130002410090606D501684A68806C22F4002222
:1041400002434A607047F8B5002504464567FDF70D
:104150001DF90746206800686FF07E46000708D505
:104160003B4600224FF400112046009600F000FA72
:1041700060B92068006840070AD53B4600224FF42A
:1041800080012046009600F0F3F908B10320F8BD45
:10419000202084F8710084F8720084F870500020A8
:1041A000F8BD10B5806A0021A0F85A10A0F852108E
:1041B000FEF75CFE10BD70B5846A94F871000025AE
:1041C000212808D120688068000604D5A4F8525040
:1041D000204600F066F894F87200222808D1206882
:1041E0008068400604D5A4F85A50204600F049F8EB
:1041F000606F40F0100060672046FEF737FE70BD2C
:1042000010B50146806A09680968890614D400213E
:10421000A0F85A1001680A6822F480720A600168E6
:104220008A6822F001028A6001688A6822F04002EE
:104230008A60202180F87210FEF7ECFF10BD10B5E7
:10424000806AFEF7E8FF10BD10B50146806A096874
:10425000096889060DD40021A0F8521001688A6807
:1042600022F080028A600068016841F0400101602C
:1042700010BDFFF715F810BD10B5806AFFF711F8F3
:1042800010BD01680A6822F490720A6001688A68A9
:1042900022F001028A60202180F87210002101665C
:1042A000704701680A6822F0C0020A60202180F885
:1042B000711070472DE9F047044600682369A16832
:1042C000D4F81CC0194363691025002643EA0C0387
:1042D00019439B4A03683746DFF868C203EA0C03B8
:1042E0000B43036020684168E36821F4405119439F
:1042F00041602168A069914201D0236A18438B680C
:1043000023F4306303438B608F4B21688F489942BD
:104310000DD1D0F8880010F0030006D001285AD043
:10432000022856D0032859D157E0012556E0884B82
:1043300099420BD1D0F8880010F00C0047D0042827
:1043400049D0082845D00C2848D146E0814B9942F5
:104350000BD1D0F8880010F0300038D010283AD0B7
:10436000202836D0302839D137E07B4B99420BD109
:10437000D0F8880010F0C00029D040282BD0802829
:1043800027D0C0282AD128E0744B99420ED1D0F80A
:10439000880010F440701AD0B0F5807F1BD0B0F5C3
:1043A000007F16D0B0F5407F18D116E0914215D1AC
:1043B000D0F8880010F4406009D0B0F5806F0AD0C2
:1043C000B0F5006F05D0B0F5406F07D105E00025CE
:1043D00004E0022502E0042500E00825604B4FF0D0
:1043E00000084FF40040914244D135B1022D07D06E
:1043F000042D07D0082D10D107E0FDF77DFB03E069
:10440000184602E0FDF798FB98B3626802EB4201A0
:10441000814202D8B0EB023F01D9012789E065B1A2
:10442000022D0DD0042D13D0082D1BD001274D498E
:10443000A6F5407088427AD9EFE7FDF75DFB09E009
:104440005008494B11E00023FBF7BAFE0646EEE7A1
:10445000FDF772FB6268010E05025008281841EB57
:104460000801F0E750084FF40003C01848F10001BC
:10447000E9E75EE0E1694FF6EF7981422ED1092D3F
:104480001DD2DFE805F00508121C151C1C1C1800C5
:10449000FDF732FB01E0FDF73FFB4100606801EBF7
:1044A0005001B1FBF0F086B20AE030496068F6E7EF
:1044B000FDF742FBF1E74FF480316068EFE7012739
:1044C000A6F110004845A8D84FF6F07106EA0100A1
:1044D000C6F3420108432168C8602AE0092D21D2B1
:1044E000DFE805F005081220162020201A00FDF74D
:1044F00003FB01E0FDF710FB0146606801EB500192
:10450000B1FBF0F086B20EE0606803EB5001F7E714
:10451000FDF712FBF0E70AE0616800EB5100B0FB29
:10452000F1F0EFE70127A6F11000484584D8206894
:10453000C660C4F860803846C4F86480BDE8F0877F
:1045400000800040F369FFEF003801400010024096
:104550000044004000480040004C00400050004033
:104560000024F400FFFC0F00000024F40048E801E0
:104570002DE9F0411E46174688460446069D1CE07C
:10458000681C1AD025B1FCF701FF801BA84214D982
:104590002068016821F4D07101602068816821F0F1
:1045A00001018160202084F8710084F872000020ED
:1045B00084F870000320BDE8F0812068C16938EA02
:1045C000010004D00020B842DAD00020F3E7012037
:1045D000F9E700000148FEF74FBC0000300300205F
:1045E0000148FEF749BC0000A8030020FEE70000D8
:1045F0000FB41CB50246002007AC00290BD0491EA1
:10460000CDE90021054B6A462146069800F0F4F8F2
:10461000009A002111701CBC5DF814FB2D4F00089E
:104620007CB5044600201D46164600290BD0491EC5
:10463000CDE90041044B6A462946304600F0DCF8DB
:10464000009A002111707CBD2D4F000802E008C8BF
:10465000121F08C1002AFAD170477047002001E0FC
:1046600001C1121F002AFBD1704700002DE9FF5F36
:1046700082B00021DDE90430020DDDF840B00343D3
:1046800018D044F61050A2F2FF324243151411988C
:1046900001281FD0A5EB0B00401C5FEA000A4FF079
:1046A00000064E4FDFF83891B046504615D5CAF196
:1046B000000413E0119801244AA3012801D16FEAF4
:1046C0000B010298119AC0E90031C0E9024206B01C
:1046D00000F08EB8CBF10000DFE704460021404A2D
:1046E000491842EB0450CDE9001012E0E00707D072
:1046F00032463B4640464946FBF7ECFF804689463A
:1047000032463B4610461946FBF7E4FF06460F4685
:104710006410002CEAD1DDE90401DDE90023BAF1DF
:10472000000F06DAFBF7D6FF42464B46FBF7D2FFF7
:1047300005E0FCF744F842464B46FCF740F80446D7
:104740000E460022284BFCF705F903D84FF0FF3046
:10475000014607E00022254B20463146FBF70BFFC0
:10476000FCF7E0F8102409E0002C0ADB0A22002301
:10477000FBF726FD039B30321A55641E50EA0102F6
:10478000F2D1641C039AC4F111031444119A012A52
:1047900003D0012208430DD10AE0084304D00020D1
:1047A0004FF0110B119072E7A3EB0B056D1E0DE09E
:1047B0005B4504DD4FF0000205F1010504E003DA7A
:1047C0004FF00002A5F10105002AECD002981199E2
:1047D000C0E90231C0E9004579E70000000014405B
:1047E0000000F03F300000000000F0430000E03F18
:1047F00030BCBDE8C09F00002DE9FF4F95B09B463F
:104800008946064600250FE2252877D10024274651
:10481000F84A0121059400E0044316F8013F203BCB
:1048200001FA03F01042F7D130782A2811D06FF046
:104830002F033078A0F13002092A16D8059A44F0E7
:10484000020402EB820203EB42021044761C059044
:10485000EFE759F8042B0592002A03DA504244F49A
:104860000054059044F00204761C30782E2816D1AE
:1048700016F8010F44F004042A280DD06FF02F021F
:104880003078A0F13003092B09D807EB870302EB3E
:104890004303C718761CF3E759F8047B761C30787D
:1048A0006C280FD006DC4C2817D068280DD06A2859
:1048B00014D104E0742810D07A280FD10DE044F40C
:1048C00000140AE044F4801401E044F440147278C7
:1048D000824202D104F58014761C761C307866285A
:1048E0000BD013DC582877D009DC002875D0452878
:1048F000F6D04628F4D047281AD19DE118E0632865
:1049000035D0642879D0652812D195E1702873D00C
:1049100008DC6728F1D069286FD06E280DD06F2889
:1049200006D1B5E073282CD0752875D0782874D0BE
:104930005A46179990476D1C75E1C4F3025002283E
:1049400009D003280DD0D9F8001004280DD00D602F
:1049500009F1040967E1D9F80010EA17C1E900522A
:10496000F6E7D9F800100D80F2E70D70F0E719F8BE
:10497000041B8DF8001000208DF80100EA4601208C
:1049800003E059F804AB4FF0FF3061074FF000012E
:1049900002D40DE008F101018846B9420FDA8045E2
:1049A000F8DB1AF808100029F4D108E008F1010139
:1049B00088468142FADB1AF808100029F6D10598DA
:1049C0005B46A0EB080721463846179A00F097FA95
:1049D000284400EB080507E04DE029E10DE01AF856
:1049E000010B5A4617999047B8F10108F7D25B4678
:1049F00021463846179A13E142E00A220092C4F396
:104A000002524FF0000A022A08D059F804CB032AB8
:104A10004FEAEC710AD00DE029E02AE009F1070124
:104A200021F00702F2E802C1914609E00FFA8CFC7E
:104A30004FEAEC71042A03D14FFA8CFC4FEAEC7177
:104A4000002907DA0A460021DCF1000C61EB0201C3
:104A50002D2202E0220504D52B228DF8042001220C
:104A600003E0E20701D02022F7E7904659E00A214F
:104A700002E010220DE010214FF0000A00910BE03F
:104A800010224FF0000A44F004040827009203E0CB
:104A900008224FF0000A0092C4F30252022A05D005
:104AA00059F804CB0021032A08D009E009F10701D5
:104AB00021F00702F2E802C1914605E01FFA8CFCE2
:104AC000042A01D10CF0FF0C4FF00008220728D572
:104AD000702806D0009B83F0100353EA0A0305D028
:104AE0000EE040228DF80420012208E05CEA010279
:104AF00006D030228DF804208DF805000222904661
:104B0000009B83F0080353EA0A030AD15CEA01021E
:104B100001D1620705D530228DF804204FF001083D
:104B20007F1E582804D034A003900EA802900DE0F8
:104B300036A0F9E753466046009AFBF741FB8446EE
:104B40000398825C0298401E029002705CEA0100A9
:104B5000F0D1029806A9081A00F1200A600702D5D0
:104B600024F4803400E00127574502DDA7EB0A005A
:104B700000E0002000EB0A01009005984144401A33
:104B80000590E00306D45B462146179A059800F08D
:104B9000B6F90544002706E001A85A46C05D1799FA
:104BA00090476D1C7F1C4745F6DBE0030CD55B4648
:104BB0002146179A059800F0A2F9054404E0302038
:104BC0005A46179990476D1C0099481E009000297D
:104BD000F5DC08E0029802995A460078491C0291D7
:104BE000179990476D1CBAF10001AAF1010AF1DC96
:104BF00065E10000092801003031323334353637A1
:104C00003839616263646566000000003031323318
:104C100034353637383941424344454600000000B8
:104C200000F05BF90544761C307800287FF4ECAD89
:104C300019B0284600F04EB9620700D4062709F1E2
:104C4000070222F0070CFCE80223E14603F00048CB
:104C50005FEA080C02D00FF2702C0DE05FEA045CF2
:104C600002D50FF2682C07E05FEAC47C02D00FF295
:104C7000602C01E0AFF2700C4FF0FF3823F00043DE
:104C8000CDF850C065280CD006DC452809D0462850
:104C90001DD047283DD13DE0662818D067287ED139
:104CA00038E00021112F01DB112000E0781CCDE954
:104CB000000106A90EA8FFF7D9FCDDE90F010E9A45
:104CC00003910021009207F1010A04914DE04FF099
:104CD00000400097CDE9011006A90EA8FFF7C6FC19
:104CE000DDE90F0203920E9B11990022DDF80CA062
:104CF0000093049211B9791C00EB010AB7EB0A008A
:104D000004D4C0F1FF3007F1010A0490AAEB0700B8
:104D1000019044E0012F00DA01270021112F01DD6D
:104D2000112000E03846CDE9000106A90EA8FFF7E2
:104D30009DFCDDE90F010E9A039100210491009280
:104D4000BA4621070CD40399514500DA8A46BAF1D4
:104D5000010F05DD009AAAF10101515C302908D04C
:104D6000B84202DA10F1040F06DA0121CDE9011090
:104D700015E0AAF10101E9E7002805DC04990144E6
:104D80000491AAEB000102E0411C514500DD8A4676
:104D90000499401A401C01904FF0004002902007F7
:104DA00004D40198504501DBCDF8048000208DF833
:104DB0004F0002980DF14F07B0F1004F25D02B2086
:104DC0000E9002984FF0020800280CDA4042029040
:104DD0002D200E9007E00A210298FBF703FB3031EB
:104DE000029007F8011DB8F10001A8F10108F2DCFA
:104DF00002980028EFD1791E0E980870307800F0E4
:104E0000200040F0450007F8020D12A8C01B00F179
:104E100007081498007800B1012000EB0A010198FE
:104E200001EBE07105984144401A401E0590E003F3
:104E300006D45B462146179A059800F060F80544B1
:104E40001498007818B15A46179990476D1CE003E2
:104E500024D55B462146179A059800F050F8054482
:104E60001CE00498002807DBDDE90301884203DD2C
:104E70000098405C179901E0179930205A469047F6
:104E8000049805F10105401C04900198401E019012
:104E900004D12E205A46179990476D1CBAF1000193
:104EA000AAF1010ADDDC05E017F8010B5A46179953
:104EB00090476D1CB8F10001A8F10108F4DC5B46D5
:104EC0002146179A0598ABE62D0000002B00000044
:104ED0002000000030BCBDE8C08F2DE9F041044641
:104EE00000251E461746880404D405E039462020D4
:104EF000B0476D1C641EF9D52846BDE8F0812DE948
:104F0000F041044600251E469046C80301D53027CF
:104F100000E02027880404D505E041463846B04724
:104F20006D1C641EF9D52846BDE8F0814A68002A48
:104F300006D00A68531C0B6010704868401E486019
:104F400070470000F0B53548364D00688178C2786A
:104F500001EB0221027901EB02443149C978C1EB2E
:104F6000C102C2EBC11205EB820115F822304B7071
:104F700001EB83035C6015F822305B1CDBB205F8A3
:104F80002230352B02D9352305F82230244B40F24C
:104F90000D144679DB784FF4A177C3EBC30CCCEB4F
:104FA000C31304EB830407EB8303CEB14F784FF0B8
:104FB000D80C2F440CEB820C867907F80C604F78E4
:104FC000C6792F443E554F78067A2F44FE54467AD0
:104FD000877A06EB07264F7801EB4707A7F8786139
:104FE000C67A002E18D04F78067B2F443E554E7857
:104FF000447B2E44F4544C78837B2C4440F2771548
:1050000005EB8202A354C27B007C02EB00204A78AD
:1050100001EB4201A1F8E201F0BD0000B4A20020C2
:10502000000000208CD500202DE9F041264D0026FF
:1050300028680178D1B1FF2906D0F920A873A868A3
:105040000670AE81BDE8F08103F04CFF002004F053
:1050500001FD03F033FF2868C1780279407901EB44
:10506000022101EB004002F029FC27E0B0F801101A
:1050700002794FBAC178407901EB022101EB00407F
:10508000804602F01BFC03F02DFF0024404605F093
:10509000A3FA641CE4B298B1012004F0DBFC6FB108
:1050A0000A48A0F84C70467504F036FB01F050F841
:1050B0000028FBD104F0CEFC03F000FFAE73BEE786
:1050C000052CE3D3F8E70000B4A200200000002084
:1050D00070B5144D144CE978C1EBC102C2EBC1119B
:1050E00014F8211000291BD002F0E8FBA878352124
:1050F00010FB01F1E878C0EBC002C2EBC01001EB7D
:10510000800104EB800040782044084490F842215C
:1051100090F80D1190F8D800BDE8704006F072B814
:1051200070BD0000000000208CD5002010B5084C98
:10513000002262706060217000F03CF82078002846
:10514000FCD160780028FCD0BDE8104000F038B8F1
:105150006401002002480021017041707047000086
:105160006401002010B5124C21784FF09040B9B185
:1051700061684A78521E4A700A784B78DA404B7858
:1051800023B9891C61602178491E2170D10701D0A3
:10519000012200E00022BDE810408021FCF7F0B8B9
:1051A00001228021FCF7ECF80120607010BD0000A6
:1051B000640100200148FDF7E7BC0000B0020020B8
:1051C0000148FDF7F9BC0000B002002010B50D4CFD
:1051D0002068FBF75FF821680B4C02462046FBF77E
:1051E00060F800280DD109492060086820F0070008
:1051F000401C08600649086880F3088848688047B2
:10520000FEE710BD6C010020F07F0120000001408E
:105210000000FF1F054C2068FBF73CF802460448DD
:105220002168FBF713F8FCF7A7F9FEE76C010020F3
:10523000F07F012030B502464FF6FF700023084C86
:105240000BE012F8015B5B1C85EA1025EDB21BB286
:1052500034F8155085EA002080B28B42F1DB30BD76
:105260005EB80008FFF7E0BE00F0F4BC0149FB2087
:1052700088737047B4A200202DE9F0412E4D00261E
:10528000E87B012800D1EE732C4F2B4C38685C343E
:10529000017809B141786170817809B1C178A17054
:1052A000017909B141796171817909B1C179E170FF
:1052B000017A09B1417A2170817A09B1C17A6970A4
:1052C000017B09B1417B2171817B31B1C07B00F051
:1052D0000101A171C0F34000E07103F003FE164824
:1052E0005C3001F043FA012000F0C0FE03F0E6FD5F
:1052F0001021B868FAF7C3FF1020B881BE73B968EF
:1053000060784870B968A078C870B96860794871E9
:10531000B968E078C871B96820784872B968687867
:10532000C872B96820794873A079E17940EA4100F0
:10533000B968C873BDE8F08100000020B4A2002065
:10534000F8B51E4C1E4D01262068017801291BD19D
:1053500040782870DD2700B31B210B2005F012FADE
:1053600082210C2005F00EFA20208DF800008DF827
:105370000170E87803280ED002208DF80200032285
:105380006946132004F02CFCA16828780870A681D7
:105390000020A073F8BD0720EFE7BF210B2005F028
:1053A000F1F968210C2005F0EDF940208DF800009E
:1053B0008DF801708DF80260E1E70000B4A20020D2
:1053C0000000002070B503F08DFD0B4D28680178BA
:1053D00019B190F9010005F02DF9A86800240460C6
:1053E00044600820A88104F083FEA9684870AC736B
:1053F000BDE8704003F062BDB4A2002010B503F018
:1054000071FDBDE8104003F059BD10B5012000F05A
:105410002DFEBDE8104002F0ADB900002DE9F041CD
:105420004B4F4A4C4FF00008B968A678494DA1F897
:10543000008081F8028038680278A2704178B9B1A2
:1054400081781F2900D91F21352012FB00F2E07856
:10545000C0EBC003C3EBC01002EB800205EB800081
:1054600040782844104480F8D810012005F064FEEC
:105470003868C178C1B101791F2900D91F21A078EE
:10548000352210FB02F2E078C0EBC003C3EBC01082
:1054900002EB800205EB800040782844104480F83D
:1054A0000D11022005F048FE38684179C1B18179BB
:1054B0001F2900D91F21A078352210FB02F2E078C5
:1054C000C0EBC003C3EBC01002EB800205EB800011
:1054D00040782844104480F84211042005F02CFE46
:1054E000A078352110FB01F1E078C0EBC002C2EBDF
:1054F000C01001EB800105EB80004078284408448F
:10550000B96890F8D8000870A078352110FB01F236
:10551000E078BB68C0EBC001C1EBC01102EB8100B9
:1055200005EB81014A782A44024492F80D215A7011
:10553000497829440844B96890F842018870A670F7
:105540000320B88187F80E80BDE8F08100000020BC
:10555000B4A200208CD500202DE9F041244EADF5F9
:10556000184D0127B7813068002450F8012F0192AF
:105570004068029003F0B6FC02F0FCFF022000F04D
:1055800075FD012004F066FA30680DF10C0801ABDE
:10559000417A009102784FF42271404602F00AFFEE
:1055A000C5B203F08BFC1348B9030DB1012200E032
:1055B0000022FBF7E5FEB068424605700DE0B068DA
:1055C00007EBC4010844C4EB041102EB8101641C25
:1055D0004B68036089684160E4B2AC42EFD30020BD
:1055E000B07307EBC500B0810DF5184DBDE8F08133
:1055F000B4A20020000400482DE9F047794E306D38
:10560000716D441A708C318C0844B18C0844F18C53
:105610000844E0427DD0744DB07D0027A968087031
:10562000A8684770A8688770A968707CC870B6F8C9
:105630004000AA68010A1171A968487104F058FD78
:10564000A9684FF422788871A9687078C871B6F893
:105650004600AA68010A1172A9684872F078AA681F
:1056600000EBC00000EB4001A5F5B46000EBC10009
:10567000317900EB8100017991728188AA68090A69
:10568000D1724068A968000C0873708CAA68010A7E
:105690005173A9688873318CAA68080AD073A86806
:1056A0000174B18C0A0A42748174F18C0A0AC274C2
:1056B000017577843784B784F784444503D9316D05
:1056C000A1F522717165202C01D9202400E03CB1A4
:1056D0004470A968200ADFF81491887015217AE0D7
:1056E0001520A8817AE0706DAB68B0FBF8F208FB7A
:1056F0001200C0EB001209EB820090F82A205A54E5
:10570000491CAB6889B290F827205A54491C89B2C9
:1057100000E064E0AB6890F828205A54491CAB685C
:1057200089B290F829205A54491C90F82420AB687B
:1057300089B2921C5A54491CAB6889B282785A5477
:10574000491CAB6889B2C2785A54491C89B20022FC
:1057500009E08318D5F808C01B790CF80130491C02
:10576000521C89B292B290F824309342F1D8F27E62
:10577000B2B1AB6890F82B205A54491C89B2002270
:105780000AE08318D5F808C093F82C300CF80130E3
:10579000491C521C89B292B290F82B309342F0D837
:1057A000AB6890F838205A54491C028FAB6889B214
:1057B000120A5A54491C826BAB6889B2120C5A54B3
:1057C000491C806BAA6889B2000E5054491C706D48
:1057D00089B2401C7065641E85D2A981AF73BDE893
:1057E000F087000000000020B4A20020F804002090
:1057F0002DE9F0412E4C2F4D20680678C378027AAF
:10580000417B012E04D14678877847EA06276F85C9
:10581000012B07D103796B7143792B7383796B73F8
:10582000C379AB73012A08D1427A837A43EA02230F
:10583000AB85C27AEA71027BAA71012906D1817B0C
:105840002972C17B007C40EA0120A8860D21A06856
:10585000FAF715FD0D20A0810020A073688DA268C5
:10586000010A1170A1684870A16868798870A16800
:10587000287BC870A168687B0871A168A87B487103
:10588000A88DA268010A9171A168C871A168E87920
:105890000872A168A8794872A168287A8872A88ECF
:1058A000A268010AD172A1680873BDE8F081000006
:1058B000B4A200200000002010B503F013FB01206B
:1058C00000F0D4FB03F08CF8BDE8104003F0F6BA0A
:1058D00010B503F007FB012000F0C8FB03F02AF924
:1058E000BDE8104003F0EABA10B503F0FBFA01205E
:1058F00000F0BCFBBDE8104000F0D6BD10B503F0D1
:10590000F1FA012000F0B2FB03F05EFCBDE81040AC
:1059100003F0D4BA7FB5134C206801680291406847
:10592000039003F0DFFA022000F0A0FB012004F056
:1059300091F80120FBF79EFA20686A46017A02A8D6
:1059400002F0B4FE05460021084604F01BFF03F0F8
:10595000B5FAA5730820A081A0680099016001999B
:1059600041607FBDB4A2002003F002BD10B503F07A
:10597000B9FA012000F07AFB03F022FFBDE81040E5
:1059800003F09CBA70B51D4C1D494FF0000522680C
:105990004FF001061078C30719D0C0F340038B7590
:1059A000ABB1C0F380034B76C0F3C0038B76C0F37A
:1059B0000013CB76C0F34013CB72C0F3801008778E
:1059C00050784877508840BAC887A1F84050A268FC
:1059D000887D1070A681A57300280ED1086D4865DA
:1059E000084C0122D1032046FBF7CAFC2046BDE843
:1059F000704001229103FBF7C3BC70BDB4A200202C
:105A0000000000200004004870B51F4C00261F4A0B
:105A1000A67320680125017820468068E9B1012934
:105A200009D0A5810229067029D0A168FF2008703D
:105A3000FB20A07370BDA581067020688178C278B4
:105A400001EB02210279407801EB024103F016FFDD
:105A500003F06EFEA068057070BDA5810670206819
:105A6000407838B1D078C0EBC001C1EBC010084914
:105A700001F82060FFF766FAA068067070BD9572A5
:105A8000A1680220087070BDB4A2002000000020B0
:105A90008CD5002010B503F025FA05F0C9FBBDE850
:105AA000104003F00BBA10B503F01CFA012000F00F
:105AB000DDFA05F071FEBDE8104003F0FFB900000B
:105AC0003EB5134C2068016800914068019003F0D6
:105AD00009FA022000F0CAFA012003F0BBFF0120FE
